{
  "_format": "hh-sol-artifact-1",
  "contractName": "RentalNFT",
  "sourceName": "contracts/renterNFT.sol",
  "abi": [
    {
      "anonymous": false,
      "inputs": [
        {
          "indexed": true,
          "internalType": "address",
          "name": "owner",
          "type": "address"
        },
        {
          "indexed": true,
          "internalType": "address",
          "name": "approved",
          "type": "address"
        },
        {
          "indexed": true,
          "internalType": "uint256",
          "name": "tokenId",
          "type": "uint256"
        }
      ],
      "name": "Approval",
      "type": "event"
    },
    {
      "anonymous": false,
      "inputs": [
        {
          "indexed": true,
          "internalType": "address",
          "name": "owner",
          "type": "address"
        },
        {
          "indexed": true,
          "internalType": "address",
          "name": "operator",
          "type": "address"
        },
        {
          "indexed": false,
          "internalType": "bool",
          "name": "approved",
          "type": "bool"
        }
      ],
      "name": "ApprovalForAll",
      "type": "event"
    },
    {
      "anonymous": false,
      "inputs": [
        {
          "indexed": false,
          "internalType": "uint8",
          "name": "version",
          "type": "uint8"
        }
      ],
      "name": "Initialized",
      "type": "event"
    },
    {
      "anonymous": false,
      "inputs": [
        {
          "indexed": true,
          "internalType": "address",
          "name": "from",
          "type": "address"
        },
        {
          "indexed": true,
          "internalType": "address",
          "name": "to",
          "type": "address"
        },
        {
          "indexed": true,
          "internalType": "uint256",
          "name": "tokenId",
          "type": "uint256"
        }
      ],
      "name": "Transfer",
      "type": "event"
    },
    {
      "inputs": [
        {
          "internalType": "address",
          "name": "to",
          "type": "address"
        },
        {
          "internalType": "uint256",
          "name": "tokenId",
          "type": "uint256"
        }
      ],
      "name": "approve",
      "outputs": [],
      "stateMutability": "nonpayable",
      "type": "function"
    },
    {
      "inputs": [
        {
          "internalType": "address",
          "name": "owner",
          "type": "address"
        }
      ],
      "name": "balanceOf",
      "outputs": [
        {
          "internalType": "uint256",
          "name": "",
          "type": "uint256"
        }
      ],
      "stateMutability": "view",
      "type": "function"
    },
    {
      "inputs": [
        {
          "internalType": "uint256",
          "name": "tokenId",
          "type": "uint256"
        }
      ],
      "name": "burn",
      "outputs": [],
      "stateMutability": "nonpayable",
      "type": "function"
    },
    {
      "inputs": [
        {
          "internalType": "uint256",
          "name": "tokenId",
          "type": "uint256"
        }
      ],
      "name": "getApproved",
      "outputs": [
        {
          "internalType": "address",
          "name": "",
          "type": "address"
        }
      ],
      "stateMutability": "view",
      "type": "function"
    },
    {
      "inputs": [
        {
          "internalType": "string",
          "name": "_name",
          "type": "string"
        },
        {
          "internalType": "string",
          "name": "symbol",
          "type": "string"
        },
        {
          "internalType": "address",
          "name": "_lender",
          "type": "address"
        }
      ],
      "name": "initialize",
      "outputs": [],
      "stateMutability": "nonpayable",
      "type": "function"
    },
    {
      "inputs": [
        {
          "internalType": "address",
          "name": "owner",
          "type": "address"
        },
        {
          "internalType": "address",
          "name": "operator",
          "type": "address"
        }
      ],
      "name": "isApprovedForAll",
      "outputs": [
        {
          "internalType": "bool",
          "name": "",
          "type": "bool"
        }
      ],
      "stateMutability": "view",
      "type": "function"
    },
    {
      "inputs": [
        {
          "internalType": "address",
          "name": "_to",
          "type": "address"
        },
        {
          "internalType": "uint256",
          "name": "_tokenId",
          "type": "uint256"
        },
        {
          "internalType": "string",
          "name": "_uri",
          "type": "string"
        }
      ],
      "name": "mint",
      "outputs": [],
      "stateMutability": "nonpayable",
      "type": "function"
    },
    {
      "inputs": [],
      "name": "name",
      "outputs": [
        {
          "internalType": "string",
          "name": "",
          "type": "string"
        }
      ],
      "stateMutability": "view",
      "type": "function"
    },
    {
      "inputs": [
        {
          "internalType": "uint256",
          "name": "tokenId",
          "type": "uint256"
        }
      ],
      "name": "ownerOf",
      "outputs": [
        {
          "internalType": "address",
          "name": "",
          "type": "address"
        }
      ],
      "stateMutability": "view",
      "type": "function"
    },
    {
      "inputs": [
        {
          "internalType": "address",
          "name": "from",
          "type": "address"
        },
        {
          "internalType": "address",
          "name": "to",
          "type": "address"
        },
        {
          "internalType": "uint256",
          "name": "tokenId",
          "type": "uint256"
        }
      ],
      "name": "safeTransferFrom",
      "outputs": [],
      "stateMutability": "nonpayable",
      "type": "function"
    },
    {
      "inputs": [
        {
          "internalType": "address",
          "name": "from",
          "type": "address"
        },
        {
          "internalType": "address",
          "name": "to",
          "type": "address"
        },
        {
          "internalType": "uint256",
          "name": "tokenId",
          "type": "uint256"
        },
        {
          "internalType": "bytes",
          "name": "data",
          "type": "bytes"
        }
      ],
      "name": "safeTransferFrom",
      "outputs": [],
      "stateMutability": "nonpayable",
      "type": "function"
    },
    {
      "inputs": [
        {
          "internalType": "address",
          "name": "operator",
          "type": "address"
        },
        {
          "internalType": "bool",
          "name": "approved",
          "type": "bool"
        }
      ],
      "name": "setApprovalForAll",
      "outputs": [],
      "stateMutability": "nonpayable",
      "type": "function"
    },
    {
      "inputs": [
        {
          "internalType": "bytes4",
          "name": "interfaceId",
          "type": "bytes4"
        }
      ],
      "name": "supportsInterface",
      "outputs": [
        {
          "internalType": "bool",
          "name": "",
          "type": "bool"
        }
      ],
      "stateMutability": "view",
      "type": "function"
    },
    {
      "inputs": [],
      "name": "symbol",
      "outputs": [
        {
          "internalType": "string",
          "name": "",
          "type": "string"
        }
      ],
      "stateMutability": "view",
      "type": "function"
    },
    {
      "inputs": [
        {
          "internalType": "uint256",
          "name": "tokenId",
          "type": "uint256"
        }
      ],
      "name": "tokenURI",
      "outputs": [
        {
          "internalType": "string",
          "name": "",
          "type": "string"
        }
      ],
      "stateMutability": "view",
      "type": "function"
    },
    {
      "inputs": [
        {
          "internalType": "address",
          "name": "from",
          "type": "address"
        },
        {
          "internalType": "address",
          "name": "to",
          "type": "address"
        },
        {
          "internalType": "uint256",
          "name": "tokenId",
          "type": "uint256"
        }
      ],
      "name": "transferFrom",
      "outputs": [],
      "stateMutability": "nonpayable",
      "type": "function"
    }
  ],
  "bytecode": "0x608060405234801561001057600080fd5b5061180d806100206000396000f3fe608060405234801561001057600080fd5b50600436106101005760003560e01c80636352211e11610097578063b88d4fde11610066578063b88d4fde1461021d578063c87b56dd14610230578063d3fc986414610243578063e985e9c51461025657600080fd5b80636352211e146101ce57806370a08231146101e157806395d89b4114610202578063a22cb4651461020a57600080fd5b8063095ea7b3116100d3578063095ea7b31461018257806323b872dd1461019557806342842e0e146101a857806342966c68146101bb57600080fd5b806301ffc9a71461010557806306fdde031461012d578063077f224a14610142578063081812fc14610157575b600080fd5b61011861011336600461159b565b610292565b60405190151581526020015b60405180910390f35b6101356102e4565b6040516101249190611681565b6101556101503660046115c5565b610376565b005b61016a610165366004611639565b6104ac565b6040516001600160a01b039091168152602001610124565b61015561019036600461151a565b6104d3565b6101556101a3366004611426565b6105e9565b6101556101b6366004611426565b61061e565b6101556101c9366004611639565b610663565b61016a6101dc366004611639565b610699565b6101f46101ef3660046113d8565b6106f9565b604051908152602001610124565b61013561077f565b6101556102183660046114de565b61078e565b61015561022b366004611462565b61079d565b61013561023e366004611639565b6107e2565b610155610251366004611544565b6108f3565b6101186102643660046113f3565b6001600160a01b039182166000908152606a6020908152604080832093909416825291909152205460ff1690565b60006001600160e01b031982166380ac58cd60e01b14806102c357506001600160e01b03198216635b5e139f60e01b145b806102de57506301ffc9a760e01b6001600160e01b03198316145b92915050565b6060606580546102f390611770565b80601f016020809104026020016040519081016040528092919081815260200182805461031f90611770565b801561036c5780601f106103415761010080835404028352916020019161036c565b820191906000526020600020905b81548152906001019060200180831161034f57829003601f168201915b5050505050905090565b600054610100900460ff16158080156103965750600054600160ff909116105b806103b05750303b1580156103b0575060005460ff166001145b6104185760405162461bcd60e51b815260206004820152602e60248201527f496e697469616c697a61626c653a20636f6e747261637420697320616c72656160448201526d191e481a5b9a5d1a585b1a5e995960921b60648201526084015b60405180910390fd5b6000805460ff19166001179055801561043b576000805461ff0019166101001790555b6104458484610931565b60c980546001600160a01b0319166001600160a01b03841617905580156104a6576000805461ff0019169055604051600181527f7f26b83ff96e1f2b6a682f133852f6798a09c465da95921460cefb38474024989060200160405180910390a15b50505050565b60006104b7826109c3565b506000908152606960205260409020546001600160a01b031690565b60006104de82610699565b9050806001600160a01b0316836001600160a01b0316141561054c5760405162461bcd60e51b815260206004820152602160248201527f4552433732313a20617070726f76616c20746f2063757272656e74206f776e656044820152603960f91b606482015260840161040f565b336001600160a01b038216148061056857506105688133610264565b6105da5760405162461bcd60e51b815260206004820152603d60248201527f4552433732313a20617070726f76652063616c6c6572206973206e6f7420746f60448201527f6b656e206f776e6572206f7220617070726f76656420666f7220616c6c000000606482015260840161040f565b6105e48383610a22565b505050565b60c9546001600160a01b031633146106135760405162461bcd60e51b815260040161040f906116b4565b6105e4838383610a90565b60c9546001600160a01b031633146106485760405162461bcd60e51b815260040161040f906116b4565b6105e48383836040518060200160405280600081525061079d565b60c9546001600160a01b0316331461068d5760405162461bcd60e51b815260040161040f906116b4565b61069681610c01565b50565b6000818152606760205260408120546001600160a01b0316806102de5760405162461bcd60e51b8152602060048201526018602482015277115490cdcc8c4e881a5b9d985b1a59081d1bdad95b88125160421b604482015260640161040f565b60006001600160a01b0382166107635760405162461bcd60e51b815260206004820152602960248201527f4552433732313a2061646472657373207a65726f206973206e6f7420612076616044820152683634b21037bbb732b960b91b606482015260840161040f565b506001600160a01b031660009081526068602052604090205490565b6060606680546102f390611770565b610799338383610c41565b5050565b60c9546001600160a01b031633146107c75760405162461bcd60e51b815260040161040f906116b4565b6104a68484846040518060200160405280600081525061079d565b60606107ed826109c3565b6000828152609760205260408120805461080690611770565b80601f016020809104026020016040519081016040528092919081815260200182805461083290611770565b801561087f5780601f106108545761010080835404028352916020019161087f565b820191906000526020600020905b81548152906001019060200180831161086257829003601f168201915b50505050509050600061089d60408051602081019091526000815290565b90508051600014156108b0575092915050565b8151156108e25780826040516020016108ca929190611652565b60405160208183030381529060405292505050919050565b6108eb84610d10565b949350505050565b60c9546001600160a01b0316331461091d5760405162461bcd60e51b815260040161040f906116b4565b6109278383610d84565b6105e48282610f1d565b600054610100900460ff1661099c5760405162461bcd60e51b815260206004820152602b60248201527f496e697469616c697a61626c653a20636f6e7472616374206973206e6f74206960448201526a6e697469616c697a696e6760a81b606482015260840161040f565b81516109af906065906020850190611257565b5080516105e4906066906020840190611257565b6000818152606760205260409020546001600160a01b03166106965760405162461bcd60e51b8152602060048201526018602482015277115490cdcc8c4e881a5b9d985b1a59081d1bdad95b88125160421b604482015260640161040f565b600081815260696020526040902080546001600160a01b0319166001600160a01b0384169081179091558190610a5782610699565b6001600160a01b03167f8c5be1e5ebec7d5bd14f71427d1e84f3dd0314c0f7b2291e5b200ac8c7c3b92560405160405180910390a45050565b826001600160a01b0316610aa382610699565b6001600160a01b031614610ac95760405162461bcd60e51b815260040161040f906116d0565b6001600160a01b038216610b2b5760405162461bcd60e51b8152602060048201526024808201527f4552433732313a207472616e7366657220746f20746865207a65726f206164646044820152637265737360e01b606482015260840161040f565b610b388383836001610fb7565b826001600160a01b0316610b4b82610699565b6001600160a01b031614610b715760405162461bcd60e51b815260040161040f906116d0565b600081815260696020908152604080832080546001600160a01b03199081169091556001600160a01b0387811680865260688552838620805460001901905590871680865283862080546001019055868652606790945282852080549092168417909155905184937fddf252ad1be2c89b69c2b068fc378daa952ba7f163c4a11628f55a4df523b3ef91a4505050565b610c0a8161103f565b60008181526097602052604090208054610c2390611770565b159050610696576000818152609760205260408120610696916112db565b816001600160a01b0316836001600160a01b03161415610ca35760405162461bcd60e51b815260206004820152601960248201527f4552433732313a20617070726f766520746f2063616c6c657200000000000000604482015260640161040f565b6001600160a01b038381166000818152606a6020908152604080832094871680845294825291829020805460ff191686151590811790915591519182527f17307eab39ab6107e8899845ad3d59bd9653f200f220920489ca2b5937696c31910160405180910390a3505050565b6060610d1b826109c3565b6000610d3260408051602081019091526000815290565b90506000815111610d525760405180602001604052806000815250610d7d565b80610d5c846110e2565b604051602001610d6d929190611652565b6040516020818303038152906040525b9392505050565b6001600160a01b038216610dda5760405162461bcd60e51b815260206004820181905260248201527f4552433732313a206d696e7420746f20746865207a65726f2061646472657373604482015260640161040f565b6000818152606760205260409020546001600160a01b031615610e3f5760405162461bcd60e51b815260206004820152601c60248201527f4552433732313a20746f6b656e20616c7265616479206d696e74656400000000604482015260640161040f565b610e4d600083836001610fb7565b6000818152606760205260409020546001600160a01b031615610eb25760405162461bcd60e51b815260206004820152601c60248201527f4552433732313a20746f6b656e20616c7265616479206d696e74656400000000604482015260640161040f565b6001600160a01b038216600081815260686020908152604080832080546001019055848352606790915280822080546001600160a01b0319168417905551839291907fddf252ad1be2c89b69c2b068fc378daa952ba7f163c4a11628f55a4df523b3ef908290a45050565b6000828152606760205260409020546001600160a01b0316610f985760405162461bcd60e51b815260206004820152602e60248201527f45524337323155524953746f726167653a2055524920736574206f66206e6f6e60448201526d32bc34b9ba32b73a103a37b5b2b760911b606482015260840161040f565b600082815260976020908152604090912082516105e492840190611257565b60018111156104a6576001600160a01b03841615610ffd576001600160a01b03841660009081526068602052604081208054839290610ff790849061172d565b90915550505b6001600160a01b038316156104a6576001600160a01b03831660009081526068602052604081208054839290611034908490611715565b909155505050505050565b600061104a82610699565b905061105a816000846001610fb7565b61106382610699565b600083815260696020908152604080832080546001600160a01b03199081169091556001600160a01b0385168085526068845282852080546000190190558785526067909352818420805490911690555192935084927fddf252ad1be2c89b69c2b068fc378daa952ba7f163c4a11628f55a4df523b3ef908390a45050565b606060006110ef8361117f565b600101905060008167ffffffffffffffff81111561110f5761110f6117c1565b6040519080825280601f01601f191660200182016040528015611139576020820181803683370190505b5090508181016020015b600019016f181899199a1a9b1b9c1cb0b131b232b360811b600a86061a8153600a850494508461117257611177565b611143565b509392505050565b60008072184f03e93ff9f4daa797ed6e38ed64bf6a1f0160401b83106111be5772184f03e93ff9f4daa797ed6e38ed64bf6a1f0160401b830492506040015b6d04ee2d6d415b85acef810000000083106111ea576d04ee2d6d415b85acef8100000000830492506020015b662386f26fc10000831061120857662386f26fc10000830492506010015b6305f5e1008310611220576305f5e100830492506008015b612710831061123457612710830492506004015b60648310611246576064830492506002015b600a83106102de5760010192915050565b82805461126390611770565b90600052602060002090601f01602090048101928261128557600085556112cb565b82601f1061129e57805160ff19168380011785556112cb565b828001600101855582156112cb579182015b828111156112cb5782518255916020019190600101906112b0565b506112d7929150611311565b5090565b5080546112e790611770565b6000825580601f106112f7575050565b601f01602090049060005260206000209081019061069691905b5b808211156112d75760008155600101611312565b600067ffffffffffffffff80841115611341576113416117c1565b604051601f8501601f19908116603f01168101908282118183101715611369576113696117c1565b8160405280935085815286868601111561138257600080fd5b858560208301376000602087830101525050509392505050565b80356001600160a01b03811681146113b357600080fd5b919050565b600082601f8301126113c957600080fd5b610d7d83833560208501611326565b6000602082840312156113ea57600080fd5b610d7d8261139c565b6000806040838503121561140657600080fd5b61140f8361139c565b915061141d6020840161139c565b90509250929050565b60008060006060848603121561143b57600080fd5b6114448461139c565b92506114526020850161139c565b9150604084013590509250925092565b6000806000806080858703121561147857600080fd5b6114818561139c565b935061148f6020860161139c565b925060408501359150606085013567ffffffffffffffff8111156114b257600080fd5b8501601f810187136114c357600080fd5b6114d287823560208401611326565b91505092959194509250565b600080604083850312156114f157600080fd5b6114fa8361139c565b91506020830135801515811461150f57600080fd5b809150509250929050565b6000806040838503121561152d57600080fd5b6115368361139c565b946020939093013593505050565b60008060006060848603121561155957600080fd5b6115628461139c565b925060208401359150604084013567ffffffffffffffff81111561158557600080fd5b611591868287016113b8565b9150509250925092565b6000602082840312156115ad57600080fd5b81356001600160e01b031981168114610d7d57600080fd5b6000806000606084860312156115da57600080fd5b833567ffffffffffffffff808211156115f257600080fd5b6115fe878388016113b8565b9450602086013591508082111561161457600080fd5b50611621868287016113b8565b9250506116306040850161139c565b90509250925092565b60006020828403121561164b57600080fd5b5035919050565b60008351611664818460208801611744565b835190830190611678818360208801611744565b01949350505050565b60208152600082518060208401526116a0816040850160208701611744565b601f01601f19169190910160400192915050565b6020808252600290820152614e4f60f01b604082015260600190565b60208082526025908201527f4552433732313a207472616e736665722066726f6d20696e636f72726563742060408201526437bbb732b960d91b606082015260800190565b60008219821115611728576117286117ab565b500190565b60008282101561173f5761173f6117ab565b500390565b60005b8381101561175f578181015183820152602001611747565b838111156104a65750506000910152565b600181811c9082168061178457607f821691505b602082108114156117a557634e487b7160e01b600052602260045260246000fd5b50919050565b634e487b7160e01b600052601160045260246000fd5b634e487b7160e01b600052604160045260246000fdfea2646970667358221220f58ded5c9cbb1a92a8e6c7b65acb4f1fe4d8ebbd7114d43f84d1a5ef9109d81864736f6c63430008070033",
  "linkReferences": {},
  "deployedLinkReferences": {}
}