{
  "_format": "hh-sol-artifact-1",
  "contractName": "VaultFactory",
  "sourceName": "contracts/VaultFactory.sol",
  "abi": [
    {
      "anonymous": false,
      "inputs": [
        {
          "indexed": false,
          "internalType": "uint8",
          "name": "version",
          "type": "uint8"
        }
      ],
      "name": "Initialized",
      "type": "event"
    },
    {
      "anonymous": false,
      "inputs": [
        {
          "indexed": true,
          "internalType": "address",
          "name": "previousOwner",
          "type": "address"
        },
        {
          "indexed": true,
          "internalType": "address",
          "name": "newOwner",
          "type": "address"
        }
      ],
      "name": "OwnershipTransferred",
      "type": "event"
    },
    {
      "anonymous": false,
      "inputs": [
        {
          "indexed": false,
          "internalType": "address",
          "name": "_vault",
          "type": "address"
        },
        {
          "indexed": false,
          "internalType": "uint256",
          "name": "_tokenID",
          "type": "uint256"
        },
        {
          "indexed": false,
          "internalType": "address",
          "name": "_admin",
          "type": "address"
        }
      ],
      "name": "vaultcreated",
      "type": "event"
    },
    {
      "inputs": [
        {
          "internalType": "string",
          "name": "_name",
          "type": "string"
        },
        {
          "internalType": "string",
          "name": "_symbol",
          "type": "string"
        },
        {
          "internalType": "uint256",
          "name": "_fractionSupply",
          "type": "uint256"
        },
        {
          "internalType": "address",
          "name": "_token721",
          "type": "address"
        },
        {
          "internalType": "uint256",
          "name": "_tokenID",
          "type": "uint256"
        }
      ],
      "name": "createVault",
      "outputs": [
        {
          "internalType": "address",
          "name": "",
          "type": "address"
        }
      ],
      "stateMutability": "nonpayable",
      "type": "function"
    },
    {
      "inputs": [
        {
          "internalType": "address",
          "name": "_vault",
          "type": "address"
        }
      ],
      "name": "initialize",
      "outputs": [],
      "stateMutability": "nonpayable",
      "type": "function"
    },
    {
      "inputs": [],
      "name": "owner",
      "outputs": [
        {
          "internalType": "address",
          "name": "",
          "type": "address"
        }
      ],
      "stateMutability": "view",
      "type": "function"
    },
    {
      "inputs": [],
      "name": "renounceOwnership",
      "outputs": [],
      "stateMutability": "nonpayable",
      "type": "function"
    },
    {
      "inputs": [
        {
          "internalType": "address",
          "name": "newOwner",
          "type": "address"
        }
      ],
      "name": "transferOwnership",
      "outputs": [],
      "stateMutability": "nonpayable",
      "type": "function"
    },
    {
      "inputs": [
        {
          "internalType": "address",
          "name": "_vault",
          "type": "address"
        }
      ],
      "name": "updateVault",
      "outputs": [],
      "stateMutability": "nonpayable",
      "type": "function"
    },
    {
      "inputs": [
        {
          "internalType": "uint256",
          "name": "",
          "type": "uint256"
        }
      ],
      "name": "vaultAddress",
      "outputs": [
        {
          "internalType": "address",
          "name": "",
          "type": "address"
        }
      ],
      "stateMutability": "view",
      "type": "function"
    },
    {
      "inputs": [
        {
          "internalType": "uint256",
          "name": "_tokenID",
          "type": "uint256"
        }
      ],
      "name": "viewVault",
      "outputs": [
        {
          "internalType": "address",
          "name": "",
          "type": "address"
        }
      ],
      "stateMutability": "view",
      "type": "function"
    }
  ],
  "bytecode": "0x608060405234801561001057600080fd5b5061001a3361001f565b61006f565b600080546001600160a01b038381166001600160a01b0319831681178455604051919092169283917f8be0079c531659141344cd1fd0a4f28419497f9722a3daafe3b4186f6b6457e09190a35050565b61081c8061007e6000396000f3fe608060405234801561001057600080fd5b50600436106100885760003560e01c8063c4d66de81161005b578063c4d66de814610116578063e7563f3f14610116578063f2fde38b14610129578063fb0687d71461013c57600080fd5b80634a659b791461008d5780634be4e91f146100d2578063715018a6146100fb5780638da5cb5b14610105575b600080fd5b6100b661009b3660046106a5565b6000908152600260205260409020546001600160a01b031690565b6040516001600160a01b03909116815260200160405180910390f35b6100b66100e03660046106a5565b6002602052600090815260409020546001600160a01b031681565b61010361014f565b005b6000546001600160a01b03166100b6565b6101036101243660046105fd565b61018e565b6101036101373660046105fd565b610215565b6100b661014a36600461061f565b6102b0565b6000546001600160a01b031633146101825760405162461bcd60e51b81526004016101799061076b565b60405180910390fd5b61018c6000610461565b565b6000546001600160a01b031633146101b85760405162461bcd60e51b81526004016101799061076b565b6001600160a01b0381166101f35760405162461bcd60e51b81526020600482015260026024820152615a4160f01b6044820152606401610179565b600180546001600160a01b0319166001600160a01b0392909216919091179055565b6000546001600160a01b0316331461023f5760405162461bcd60e51b81526004016101799061076b565b6001600160a01b0381166102a45760405162461bcd60e51b815260206004820152602660248201527f4f776e61626c653a206e6577206f776e657220697320746865207a65726f206160448201526564647265737360d01b6064820152608401610179565b6102ad81610461565b50565b6000818152600260205260408120546001600160a01b0316156102fa5760405162461bcd60e51b8152602060048201526002602482015261564560f01b6044820152606401610179565b6001600160a01b0383166103365760405162461bcd60e51b815260206004820152600360248201526216905560ea1b6044820152606401610179565b600086868460405160200161034d939291906106ea565b60408051601f198184030181529190528051602090910120600154909150600090610381906001600160a01b0316836104b1565b6000858152600260205260409081902080546001600160a01b0319166001600160a01b0384169081179091559051637f6f013b60e11b81529192509063fede0276906103d9908b908b908b908b908b9060040161071f565b600060405180830381600087803b1580156103f357600080fd5b505af1158015610407573d6000803e3d6000fd5b5050604080516001600160a01b0385811682526020820189905289168183015290517f4caf7835666ff4d7a1088cd140e6b14e5860019fca82635b9da15b15010181879350908190036060019150a1979650505050505050565b600080546001600160a01b038381166001600160a01b0319831681178455604051919092169283917f8be0079c531659141344cd1fd0a4f28419497f9722a3daafe3b4186f6b6457e09190a35050565b6000763d602d80600a3d3981f3363d3d373d3d3d363d730000008360601b60e81c176000526e5af43d82803e903d91602b57fd5bf38360781b1760205281603760096000f590506001600160a01b03811661054e5760405162461bcd60e51b815260206004820152601760248201527f455243313136373a2063726561746532206661696c65640000000000000000006044820152606401610179565b92915050565b80356001600160a01b038116811461056b57600080fd5b919050565b600082601f83011261058157600080fd5b813567ffffffffffffffff8082111561059c5761059c6107d0565b604051601f8301601f19908116603f011681019082821181831017156105c4576105c46107d0565b816040528381528660208588010111156105dd57600080fd5b836020870160208301376000602085830101528094505050505092915050565b60006020828403121561060f57600080fd5b61061882610554565b9392505050565b600080600080600060a0868803121561063757600080fd5b853567ffffffffffffffff8082111561064f57600080fd5b61065b89838a01610570565b9650602088013591508082111561067157600080fd5b5061067e88828901610570565b9450506040860135925061069460608701610554565b949793965091946080013592915050565b6000602082840312156106b757600080fd5b5035919050565b600081518084526106d68160208601602086016107a0565b601f01601f19169290920160200192915050565b600084516106fc8184602089016107a0565b8451908301906107108183602089016107a0565b01928352505060200192915050565b60a08152600061073260a08301886106be565b828103602084015261074481886106be565b604084019690965250506001600160a01b0392909216606083015260809091015292915050565b6020808252818101527f4f776e61626c653a2063616c6c6572206973206e6f7420746865206f776e6572604082015260600190565b60005b838110156107bb5781810151838201526020016107a3565b838111156107ca576000848401525b50505050565b634e487b7160e01b600052604160045260246000fdfea264697066735822122091ddbb8ac050efd28c303e913fe25a629d9686004e9796f851548f1a217a90b764736f6c63430008070033",
  "linkReferences": {},
  "deployedLinkReferences": {}
}