{
  "_format": "hh-sol-artifact-1",
  "contractName": "Lottery",
  "sourceName": "contracts/Lottery.sol",
  "abi": [
    {
      "inputs": [
        {
          "internalType": "contract IERC20",
          "name": "_alcazarToken",
          "type": "address"
        }
      ],
      "stateMutability": "nonpayable",
      "type": "constructor"
    },
    {
      "anonymous": false,
      "inputs": [
        {
          "indexed": true,
          "internalType": "address",
          "name": "previousOwner",
          "type": "address"
        },
        {
          "indexed": true,
          "internalType": "address",
          "name": "newOwner",
          "type": "address"
        }
      ],
      "name": "OwnershipTransferred",
      "type": "event"
    },
    {
      "inputs": [
        {
          "internalType": "uint256",
          "name": "",
          "type": "uint256"
        }
      ],
      "name": "Raffle",
      "outputs": [
        {
          "internalType": "uint256",
          "name": "number",
          "type": "uint256"
        },
        {
          "internalType": "uint256",
          "name": "maxTickets",
          "type": "uint256"
        },
        {
          "internalType": "bool",
          "name": "ticketBuyOption",
          "type": "bool"
        },
        {
          "internalType": "uint256",
          "name": "ticketPrice",
          "type": "uint256"
        },
        {
          "internalType": "uint256",
          "name": "ticketCounter",
          "type": "uint256"
        },
        {
          "internalType": "uint256",
          "name": "startTime",
          "type": "uint256"
        },
        {
          "internalType": "uint256",
          "name": "endTime",
          "type": "uint256"
        },
        {
          "internalType": "bool",
          "name": "raffleOver",
          "type": "bool"
        },
        {
          "internalType": "address",
          "name": "raffleRewardToken",
          "type": "address"
        },
        {
          "internalType": "address",
          "name": "winner",
          "type": "address"
        },
        {
          "internalType": "uint256",
          "name": "rewardPercent",
          "type": "uint256"
        }
      ],
      "stateMutability": "view",
      "type": "function"
    },
    {
      "inputs": [
        {
          "internalType": "uint256",
          "name": "_raffleNumber",
          "type": "uint256"
        },
        {
          "internalType": "uint256",
          "name": "_noOfTickets",
          "type": "uint256"
        }
      ],
      "name": "buyTicket",
      "outputs": [],
      "stateMutability": "payable",
      "type": "function"
    },
    {
      "inputs": [
        {
          "internalType": "uint256",
          "name": "_maxTickets",
          "type": "uint256"
        },
        {
          "internalType": "bool",
          "name": "_ticketBuyOption",
          "type": "bool"
        },
        {
          "internalType": "uint256",
          "name": "_ticketPrice",
          "type": "uint256"
        },
        {
          "internalType": "uint256",
          "name": "_startTime",
          "type": "uint256"
        },
        {
          "internalType": "uint256",
          "name": "_endTime",
          "type": "uint256"
        },
        {
          "internalType": "address",
          "name": "_rewardToken",
          "type": "address"
        },
        {
          "internalType": "uint256",
          "name": "_rewardBP",
          "type": "uint256"
        }
      ],
      "name": "createRaffle",
      "outputs": [],
      "stateMutability": "nonpayable",
      "type": "function"
    },
    {
      "inputs": [
        {
          "internalType": "uint256",
          "name": "_randomWinner",
          "type": "uint256"
        },
        {
          "internalType": "uint256",
          "name": "_raffleNumber",
          "type": "uint256"
        }
      ],
      "name": "declareWinner",
      "outputs": [],
      "stateMutability": "nonpayable",
      "type": "function"
    },
    {
      "inputs": [],
      "name": "owner",
      "outputs": [
        {
          "internalType": "address",
          "name": "",
          "type": "address"
        }
      ],
      "stateMutability": "view",
      "type": "function"
    },
    {
      "inputs": [],
      "name": "renounceOwnership",
      "outputs": [],
      "stateMutability": "nonpayable",
      "type": "function"
    },
    {
      "inputs": [],
      "name": "totalRaffles",
      "outputs": [
        {
          "internalType": "uint256",
          "name": "",
          "type": "uint256"
        }
      ],
      "stateMutability": "view",
      "type": "function"
    },
    {
      "inputs": [
        {
          "internalType": "address",
          "name": "newOwner",
          "type": "address"
        }
      ],
      "name": "transferOwnership",
      "outputs": [],
      "stateMutability": "nonpayable",
      "type": "function"
    }
  ],
  "bytecode": "0x608060405234801561001057600080fd5b50604051610d23380380610d2383398101604081905261002f916100b1565b61003833610061565b60018055600380546001600160a01b0319166001600160a01b03929092169190911790556100e1565b600080546001600160a01b038381166001600160a01b0319831681178455604051919092169283917f8be0079c531659141344cd1fd0a4f28419497f9722a3daafe3b4186f6b6457e09190a35050565b6000602082840312156100c357600080fd5b81516001600160a01b03811681146100da57600080fd5b9392505050565b610c33806100f06000396000f3fe60806040526004361061007b5760003560e01c806346c52ef31161004e57806346c52ef3146101ca578063715018a6146101ea5780638da5cb5b146101ff578063f2fde38b1461022757600080fd5b80631643c8c414610080578063298ec208146100a25780632f658c3f146100b55780633748312f146101a6575b600080fd5b34801561008c57600080fd5b506100a061009b366004610a93565b610247565b005b6100a06100b0366004610a93565b6102df565b3480156100c157600080fd5b5061013b6100d0366004610a15565b600460208190526000918252604090912080546001820154600283015460038401549484015460058501546006860154600787015460088801546009909801549698959760ff958616979495939492938216926101009092046001600160a01b03908116929116908b565b604080519b8c5260208c019a909a52971515988a01989098526060890195909552608088019390935260a087019190915260c0860152151560e08501526001600160a01b03908116610100850152909116610120830152610140820152610160015b60405180910390f35b3480156101b257600080fd5b506101bc60025481565b60405190815260200161019d565b3480156101d657600080fd5b506100a06101e5366004610a2e565b610530565b3480156101f657600080fd5b506100a06105e6565b34801561020b57600080fd5b506000546040516001600160a01b03909116815260200161019d565b34801561023357600080fd5b506100a06102423660046109dd565b61061c565b6000546001600160a01b0316331461027a5760405162461bcd60e51b815260040161027190610b04565b60405180910390fd5b6000818152600460208190526040822090810154909161029a8286610bb7565b6102a5906001610b39565b6000908152600a84016020526040902054600890930180546001600160a01b0319166001600160a01b039094169390931790925550505050565b600260015414156103325760405162461bcd60e51b815260206004820152601f60248201527f5265656e7472616e637947756172643a207265656e7472616e742063616c6c006044820152606401610271565b60026001556000828152600460205260409020600781015460ff16156103925760405162461bcd60e51b8152602060048201526015602482015274526166666c6520616c7265616479206f766572212160581b6044820152606401610271565b80600101548282600401546103a79190610b39565b11156103f55760405162461bcd60e51b815260206004820152601f60248201527f4d617820616d6f756e74206f66207469636b65747320657863656564656421006044820152606401610271565b600281015460ff161561042b5761042b33308360030154856104179190610b51565b6003546001600160a01b03169291906106b7565b600281015460ff166104945760038101546104469083610b51565b34146104945760405162461bcd60e51b815260206004820152601b60248201527f5469636b657420666565206578636565647320616d6f756e74212100000000006044820152606401610271565b60015b828111610526576004820180549060006104b083610b9c565b909155505081546000908152600b83016020908152604080832033808552908352818420600487018054825460018181018555938852868820015580548652600a880190945282852080546001600160a01b0319169092179091559154808452922001558061051e81610b9c565b915050610497565b5050600180555050565b6000546001600160a01b0316331461055a5760405162461bcd60e51b815260040161027190610b04565b6002805490600061056a83610b9c565b90915550506002805460009081526004602052604090206001810198909855878101805460ff19169715159790971790965594548655600386019390935560058501919091556006840155600783018054610100600160a81b0319166101006001600160a01b0390931692909202919091179055600990910155565b6000546001600160a01b031633146106105760405162461bcd60e51b815260040161027190610b04565b61061a6000610717565b565b6000546001600160a01b031633146106465760405162461bcd60e51b815260040161027190610b04565b6001600160a01b0381166106ab5760405162461bcd60e51b815260206004820152602660248201527f4f776e61626c653a206e6577206f776e657220697320746865207a65726f206160448201526564647265737360d01b6064820152608401610271565b6106b481610717565b50565b604080516001600160a01b0385811660248301528416604482015260648082018490528251808303909101815260849091019091526020810180516001600160e01b03166323b872dd60e01b179052610711908590610767565b50505050565b600080546001600160a01b038381166001600160a01b0319831681178455604051919092169283917f8be0079c531659141344cd1fd0a4f28419497f9722a3daafe3b4186f6b6457e09190a35050565b60006107bc826040518060400160405280602081526020017f5361666545524332303a206c6f772d6c6576656c2063616c6c206661696c6564815250856001600160a01b031661083e9092919063ffffffff16565b80519091501561083957808060200190518101906107da91906109f8565b6108395760405162461bcd60e51b815260206004820152602a60248201527f5361666545524332303a204552433230206f7065726174696f6e20646964206e6044820152691bdd081cdd58d8d9595960b21b6064820152608401610271565b505050565b606061084d8484600085610857565b90505b9392505050565b6060824710156108b85760405162461bcd60e51b815260206004820152602660248201527f416464726573733a20696e73756666696369656e742062616c616e636520666f6044820152651c8818d85b1b60d21b6064820152608401610271565b6001600160a01b0385163b61090f5760405162461bcd60e51b815260206004820152601d60248201527f416464726573733a2063616c6c20746f206e6f6e2d636f6e74726163740000006044820152606401610271565b600080866001600160a01b0316858760405161092b9190610ab5565b60006040518083038185875af1925050503d8060008114610968576040519150601f19603f3d011682016040523d82523d6000602084013e61096d565b606091505b509150915061097d828286610988565b979650505050505050565b60608315610997575081610850565b8251156109a75782518084602001fd5b8160405162461bcd60e51b81526004016102719190610ad1565b80356001600160a01b03811681146109d857600080fd5b919050565b6000602082840312156109ef57600080fd5b610850826109c1565b600060208284031215610a0a57600080fd5b815161085081610bef565b600060208284031215610a2757600080fd5b5035919050565b600080600080600080600060e0888a031215610a4957600080fd5b873596506020880135610a5b81610bef565b9550604088013594506060880135935060808801359250610a7e60a089016109c1565b915060c0880135905092959891949750929550565b60008060408385031215610aa657600080fd5b50508035926020909101359150565b60008251610ac7818460208701610b70565b9190910192915050565b6020815260008251806020840152610af0816040850160208701610b70565b601f01601f19169190910160400192915050565b6020808252818101527f4f776e61626c653a2063616c6c6572206973206e6f7420746865206f776e6572604082015260600190565b60008219821115610b4c57610b4c610bd9565b500190565b6000816000190483118215151615610b6b57610b6b610bd9565b500290565b60005b83811015610b8b578181015183820152602001610b73565b838111156107115750506000910152565b6000600019821415610bb057610bb0610bd9565b5060010190565b600082610bd457634e487b7160e01b600052601260045260246000fd5b500690565b634e487b7160e01b600052601160045260246000fd5b80151581146106b457600080fdfea264697066735822122095fe32f6569992bbc5e53f45d2902338fdbe3d45bbfcd37dc19cb6a1bfc554ae64736f6c63430008070033",
  "linkReferences": {},
  "deployedLinkReferences": {}
}